:100000000C94F4010C94A9050C9468050C9411024D
:100010000C9411020C9411020C9411020C94110214
:100020000C9411020C9405110C9411020C94110201
:100030000C9411020C9411020C9411020C941102F4
:100040000C9475120C9411020C9411020C94110270
:100050000C9411020C9411020C9411020C941102D4
:100060000C9411020C94110286048A048C049604E8
:10007000D00498049A04AA04C404D6048C04D804B6
:10008000F104F504F704070517052D052F053505BF
:100090002020207A616B6F01637A6F6E61202020CF
:1000A000002020204B616C69627261636A612020CC
:1000B000200055727563686F6D006B616C696272C8
:1000C00061636A052E2E2E002020204B616C696230
:1000D0007261636A61202020002020207A616B6FAA
:1000E00001637A6F6E612020200006202020204DC1
:1000F00065747279202020202007000620526F743A
:1001000061636A65206B6F04612007000620526FEF
:100110007461636A652073696C2E200700062020D5
:1001200025204D616E6577727520202007000649F5
:100130006D70756C7379206E2D6B6F6420070025D0
:10014000004B504D3A20004B504D3A202D2D2D00A4
:100150007265736574200607000678006E2D6B6F5C
:10016000643A0023206E2D6B6F647E696D702F6F73
:100170006272002052504D004E69652077796B7293
:1001800079746F00696D70756C73037700200020BF
:10019000202020202D73746F702D004F6B726573BB
:1001A000286E2920203A004F6B726573286E2D311E
:1001B000293A008000780023204F6772616E6963DE
:1001C0007A656E69612000800078005572756368F9
:1001D0006F6D00656E6B6F6465722E2E2E00576515
:1001E00072736A612070726F6772616D753A002078
:1001F00056302E39382032312E30342E3234200011
:100200002078002081000620464120202020202048
:1002100020204643200700232046418046430020FB
:10022000557374617720696D702F6F62723A002088
:100230005A6D69656E696F6E6F207573742E00203C
:100240002020456479636A61206F67722E00205711
:1002500079626965727A2070726F66696C0020201D
:10026000202057637A7974616E6F0020202020204F
:1002700070726F66696C002020205A726573657415
:100280006F77616E6F0020202075737461776965E8
:100290006E696100202020205A61706973616E6F61
:1002A00000202020757374617769656E6961002094
:1002B00020416B63657074756A65737A3F00062030
:1002C0002020202020202020202020202007004E39
:1002D00049450054414B002020205A6D69656E69E4
:1002E0006F6E6F00202020757374617769656E6989
:1002F000610004081F08021F0204202001021408E4
:100300002020080C0E0F0E0C082002060E1E0E06F2
:1003100002200E100E011E000000111111130D100D
:10032000101002041F0204081F0004001F0204082A
:100330001F000C04060C04040E0000000E111F1018
:100340000E0300000E010F110F0102040E11111116
:100350000E00020416191111110002040E101011E2
:100360000E0002040E100E011E000042585600003E
:1003700000000000000000000000A11B0000083287
:1003800004101B1C00010102A5038C03424B560004
:100390000000000000000000000000EC2C0000083D
:1003A0002804123B1F4258560000000000000000C5
:1003B0000000000072290000083204101B1C3C00E1
:1003C00007003E0006000700060073042075737ADC
:1003D0006B6F647A6F6E65210044616E65207720D3
:1003E000454550524F4D000011241FBECFEFD8E0BD
:1003F000DEBFCDBF12E0A0E0B1E0ECE6F0E302C06A
:1004000005900D92AC3FB107D9F723E0ACEFB2E015
:1004100001C01D92AE37B207E1F70E945F120C9443
:1004200034180C9400008F929F92AF92BF92CF929B
:10043000DF92EF92FF92CF93DF93E0915D03F09113
:100440005E03C480D580E680F7808FB7F894E09192
:100450000801F09109014081518162817381452B2E
:10046000462B472BA1F48FBF80915F03823009F4A4
:100470004CC030F4882309F456C0813069F017C1AC
:10048000833009F469C0843009F4A2C010C1C0806F
:10049000D180E280F380E7CFA4E6B0E0A701960127
:1004A0000E940816E0910801F091090125A136A1EA
:1004B00047A150A50E94D11569017A012536310561
:1004C0004105510528F084E6C82ED12CE12CF12CF1
:1004D000C701B6010E94701061E099E0981B892F56
:1004E0000E94710F4AE0C701B6010E94F40E8FE32B
:1004F00091E0DF91CF91FF90EF90DF90CF90BF9090
:10050000AF909F908F900C94DB0EE0910801F091DA
:10051000090121A530E040E050E0C701B6010E948A
:10052000D11569017A01C701B6010E94701061E01E
:100530009AE0981B892F0E94710F4AE0C701B6010B
:10054000DF91CF91FF90EF90DF90CF90BF90AF9071
:100550009F908F900C94F40EC0910801D0910901E6
:10056000AAE0B0E0A70196010E94081629A530E094
:1005700040E050E00E94D115CAA4D12CE12CF12C0E
:10058000CA01B901A70196010E94D115CA01B9019A
:100590002AE030E040E050E00E94D11569017A0184
:1005A0004B015C01CA01B9010E94701061E098E042
:1005B000981B892F0E94710F4AE0C701B6010E9463
:1005C000F40E8EE20E946E0F4AE0C501B401B8CF6E
:1005D000C0910801D09109012DA53EA5A7E5BFE076
:1005E0000E94F91522EE34E040E050E00E94D1155F
:1005F000C701B6010E94991529A530E040E050E0FE
:100600000E94D115CAA4D12CE12CF12CCA01B90148
:10061000A70196010E94D11569017A01CA01B901A9
:1006200020EA36E841E050E00E94D11549015A0124
:10063000CA01B9010E94701061E096E0981B892FF1
:100640000E94710F4AE0C501B4010E94F40E8EE2CF
:100650000E946E0FC701B60128EE33E040E050E083
:100660000E94D115CA01B90124E630E040E050E013
:100670000E94D1156B017C018AE0C816D104E10407
:10068000F10418F480E30E946E0F4AE0C701B6013E
:100690000E94F40E8DE6DF91CF91FF90EF90DF90F6
:1006A000CF90BF90AF909F908F900C946E0FDF9182
:1006B000CF91FF90EF90DF90CF90BF90AF909F9041
:1006C0008F900895E0910801F0910901848995893E
:1006D000049690935E0380935D036AEB70E082EB77
:1006E00090E00E94EA050E94B6100E949210E091EC
:1006F0000801F09109011082118212821382108682
:10070000E0915D03F0915E0381E0808313821482A7
:1007100015821682178262E573E00E94950F62E4EB
:1007200073E083E00E94950F62E373E084E00C9431
:10073000950F90916003911117C0E0915D03F091C6
:100740005E03A0910801B09109014D915D916D91F9
:100750007C91139744835583668377831D921D9202
:100760001D921C92139783830895E0910801F091E4
:1007700009018085882359F11086E0915D03F0918D
:100780005E038081882309F1108280E00E94BF0F00
:1007900080915F03823091F038F4882361F08130DA
:1007A000A1F48DE191E00FC0833059F0843069F4F9
:1007B0008AEE90E008C08EE291E005C08CE091E006
:1007C00002C08BEF90E00E94DB0E0C9413020895A0
:1007D000E0915D03F0915E0381E08083E091080188
:1007E000F091090180870C94B5031F93CF93DF9399
:1007F000EC01162F88E280936003E0910801F091EC
:10080000090180819181A281B3810197A105B10580
:1008100011F40E94E803E0910801F0910901808140
:100820009181A281B381112339F04597A105B105CA
:100830004CF00E94B61006C04597A105B10514F012
:100840000E949210E0910801F091090140815181CC
:1008500062817381CE01A0E0B0E0481759076A07B2
:100860007B0771F4112319F00E949D1002C00E94B1
:10087000C110E0915D03F0915E0383818F5F8383FC
:10088000DF91CF911F910895CF93C82F85FF0EC0A0
:100890000E949D0E0E94C1100E949D100E94F4149F
:1008A00040E061E085E494E10E94BD14C7FF0BC005
:1008B00080915F03811102C084E001C08150809368
:1008C0005F030E94E803C4FF0DC080915F0390E0C6
:1008D000019665E070E00E94BD1580935F03CF91A3
:1008E0000C94E803CF910895CF93DF93C0915D03FB
:1008F000D0915E03EB818E2F90E08C30910508F053
:100900005AC0FC01EC5CFF4F0C94F31560E088ECDE
:1009100090E009C082E04DC0E0910801F09109012A
:1009200061E085A196A10E94F50345C084E041C025
:1009300086E03FC0E0910801F091090161E085A1E6
:1009400096A10E94F503E0915D03F0915E0381E0C2
:10095000818331C088E00E9499038CE291E09093FA
:1009600065038093640360E080E00E94710F81EA78
:1009700090E00E94DB0E61E080E00E94710F80E950
:1009800090E00E94DB0E17C0809164039091650394
:10099000892B31F48981882319F019820E94E80398
:1009A000E0910801F091090160E0BBCF8AE001C04D
:1009B00088E00E949903DF91CF910C94B503CF9307
:1009C000DF93C0915D03D0915E03EB818E2F90E0A9
:1009D0008830910508F04CC0FC01E05CFF4F0C949E
:1009E000F31560E088EC90E035C082E03FC0E09114
:1009F0000801F091090161E085A196A10E94F5032B
:100A0000E0915D03F0915E0381E0818331C084E079
:100A10000E9499038CE291E09093650380936403B4
:100A200069ED70E088EC90E00E94EA0521C08091B9
:100A3000640390916503892B31F48981882319F02F
:100A400019820E94E803E0910801F091090160E039
:100A500085A196A10E94F5030BC086E007C0E09136
:100A60000801F091090161E0F3CF84E00E9499034D
:100A7000DF91CF910C94B5030E9462038FED94E057
:100A80000E94EA1440E060E084E494E00C94BD1419
:100A900085EA93E00E9469100E9462038FED94E062
:100AA0000E94EA1440E060E084E494E00C94BD14F9
:100AB0008CE893E00E9469100E94620384E794E04E
:100AC0000E94EA1440E060E084E494E00C94BD14D9
:100AD0001F920F920FB60F9211242F933F934F93B3
:100AE0005F936F937F938F939F93AF93BF93CF93B6
:100AF000DF93EF93FF93C0910801D09109010E9409
:100B00005B116C837D838E839F83E0910801F0915C
:100B1000090180819181A281B3810196A11DB11D3E
:100B200080839183A283B38381E08087FF91EF91DB
:100B3000DF91CF91BF91AF919F918F917F916F91F5
:100B40005F914F913F912F910F900FBE0F901F908B
:100B500018951F920F920FB60F9211242F933F9367
:100B60004F935F936F937F938F939F93AF93BF93B5
:100B7000CF93DF93EF93FF93C0910801D0910901C8
:100B80000E945B116D877E878F87988BE0910801AB
:100B9000F091090181859285A385B4850196A11DF7
:100BA000B11D81879287A387B48781E0818BFF91F4
:100BB000EF91DF91CF91BF91AF919F918F917F91F5
:100BC0006F915F914F913F912F910F900FBE0F90BA
:100BD0001F9018950F931F93CF93DF938C01EB0118
:100BE00081E00E94BF0F0115110519F0C8010E9494
:100BF000DB0E82E00E94BF0F209739F0CE01DF911B
:100C0000CF911F910F910C94DB0EDF91CF911F912B
:100C10000F910895E0910801F091090115AA16AA13
:100C2000682F81E00C94FE14E0915D03F0915E0367
:100C300081E08083158A168A148613860C947E11AF
:100C4000E0910801F09109018489958904969093B7
:100C50005E0380935D030E94140660E571E087E403
:100C600091E00E94EA0540E061E089E396E00C949F
:100C7000BD140F931F93CF93DF93C82F85FF04C03C
:100C800060E081E00E94FE14C7FD01C0C4FD0E9427
:100C90001406C6FF59C0CFB7F89400915D031091B8
:100CA0005E030E944F11F8016583768387839087E6
:100CB000CFBFE0915D03F0915E0320818581968135
:100CC000A781B085222331F0108281839283A38390
:100CD000B4833AC021813281BC01621B730B7287DD
:100CE000618781839283A383B48386898F5F8530F4
:100CF00009F484E0868B258930E0E901CC0FDD1F03
:100D0000CE0FDF1F80E69AEE0E94A9157E876D87C1
:100D1000148613867689DF011D9660E083859485AD
:100D2000671741F04D915D91840F951F94878387DC
:100D30006F5FF4CF70E00E94A915748763872F5FFF
:100D40003F4F23703327258B89E396E00E94CC1414
:100D5000882331F181E00E94BF0F81E491E00E947D
:100D6000DB0EE0915D03F0915E036385748580E0A6
:100D700090E00E94701060E098E0981B892F0E941C
:100D8000710FE0915D03F0915E036385748580E0EF
:100D900090E04AE0DF91CF911F910F910C94F40EF7
:100DA000DF91CF911F910F910895CF93C82F807637
:100DB00011F4C7FF03C08C2F0E940A06C4FF0EC0A7
:100DC00080910701882351F084E68093070140E079
:100DD00061E080EF96E0CF910C94BD14CF9108951F
:100DE000CF93C82F807719F08C2F0E940A06C7FF77
:100DF0000EC080910701882351F084E6809307019B
:100E000040E061E089E097E0CF910C94BD14CF9170
:100E10000895CF93C82F807611F4C7FF03C08C2F9D
:100E20000E940A06C4FF0EC080910701882351F07A
:100E300084E68093070140E061E084E297E0CF918F
:100E40000C94BD14CF910895CF93C82F807511F4E1
:100E5000C7FF03C08C2F0E940A06C5FF0EC08091F9
:100E60000701882351F084E68093070140E061E0A8
:100E70008FE397E0CF910C94BD14CF910895CF9359
:100E8000C82F807311F4C7FF03C08C2F0E940A067D
:100E9000C6FF13C080910701882379F0E091080113
:100EA000F091090115AA16AA0E94F41440E061E02D
:100EB00080E296E0CF910C94BD14CF91089580917B
:100EC0000701811104C060E081E00C94FE140895D4
:100ED000CF93C82F807311F4C7FF03C08C2F0E94DB
:100EE0000A06C6FF0EC080910701882351F084E6F0
:100EF0008093070140E061E085ED96E0CF910C948E
:100F0000BD14CF91089560E080E00E94710F8CE5E0
:100F100091E00E94DB0EE0910801F09109016081EF
:100F20007181828193810E94701060E09DE0981B26
:100F3000892F0E94710FE0910801F09109016081F1
:100F40007181828193814AE00E94F40E60E08EE01C
:100F50000E94710F89E591E00C94DB0ECF93C82FAE
:100F600085FF08C00E94C1100E949D1060E081E0D2
:100F70000E94FE14C6FF13C0E0910801F091090120
:100F800080819181A281B381892B8A2B8B2B39F0AF
:100F900080819181A281B38181A70E940D12C7FF38
:100FA0000BC081E00E94BF0FE0910801F0910901A0
:100FB0001082118212821382C4FF16C0E0915D0379
:100FC000F0915E038081823018F40E94A81002C064
:100FD0000E94CC10E0915D03F0915E03808190E06F
:100FE00001968370992780838EEA97E00E94CC1443
:100FF000882319F0CF910C948307CF910895E09145
:101000000801F09109018085882319F010860C945D
:1010100083070895E0910801F09109010488F5899A
:10102000E02DCF01049690935E0380935D031482BC
:1010300080E00E94BF0F0E94830761E080E00E9471
:10104000710F83E691E00E94DB0E0E94B6100E94B1
:1010500092108FEF97E00E94EA1440E061E08EEA80
:1010600097E00C94BD140E949D100E94C1100E9434
:101070009D0E0C94F414CF93C82F85FF07C02898B9
:101080000E94330860E081E00E94FE14C6FF2DC07C
:10109000E0910801F091090180A991E0811190E0AF
:1010A00090AB811103C00E94141202C00E940D1265
:1010B00061E08FE00E94710FE0912803F091290315
:1010C0008081811112C080916103882371F0E091C9
:1010D0000801F091090180A9882319F089EC91E0B9
:1010E00002C087EC91E00E94DB0EC7FD0E94A810B1
:1010F000C4FF03C0CF910C94CC10CF9108954F92B0
:101100005F926F927F928F929F92AF92BF92EF9277
:10111000FF921F93CF93DF93E0910801F0910901B3
:101120008085882309F4F4C0108644815581668146
:10113000778184E18093610395B181E0892785B946
:10114000C0912803D09129038881882319F118823E
:101150004093240350932503609326037093270341
:1011600080E00E94BF0F61E080E00E94710F87EB7A
:1011700091E00E94DB0EE0910801F091090180A945
:10118000882319F085EB91E002C083EB91E00E9487
:10119000DB0EBEC08F85882311F081508F87809130
:1011A000240390912503A0912603B09127034A01BF
:1011B0005B01881A990AAA0ABB0A809220039092BE
:1011C0002103A0922203B09223034093240350935F
:1011D00025036093260370932703E0900801F090A5
:1011E0000901F70180A9811141C0A1A9B0E0A501C1
:1011F00094010E9408162B013C01A2A920911C0316
:1012000030911D0340911E0350911F03B0E00E94D6
:101210000816641575058605970540F58F858111BB
:1012200025C081E00E94BF0F87EA91E00E94DB0E9B
:1012300060912003709121038091220390912303F8
:101240004AE00E94F40E82E00E94BF0F8BE991E019
:101250000E94DB0E60911C0370911D0380911E03A0
:1012600090911F034AE00E94F40E63C080921C0319
:1012700090921D03A0921E03B0921F0389818F5F7D
:10128000893008F088E089831A8184E0189FF00192
:101290001124E450FD4F80829182A282B382398171
:1012A000ECEFF2E060E070E0CB0120E0231751F0BA
:1012B00081909190A190B190680D791D8A1D9B1D20
:1012C0002F5FF4CF30E040E050E00E94D115209332
:1012D000200330932103409322035093230360E0C3
:1012E00077E883E993E00E94D115F70181A4912C5E
:1012F000A12CB12CCA01B901A50194010E94D115FC
:101300003E872D871F5F183011F01A8301C01A82A3
:101310008091610381111CC0E0910801F0910901E5
:1013200080A9811115C060E070E08FE891E00E9413
:10133000EA05DF91CF911F91FF90EF90BF90AF90A2
:101340009F908F907F906F905F904F900C94330898
:101350008091640390916503892BE1F5E091280366
:10136000F091290380818823A9F184E690E090938D
:1013700065038093640386E98093610361E08AE0FA
:101380000E94710FE0912803F0912903848181501C
:1013900084838A3020F48DE891E00E94DB0EE09196
:1013A0002803F0912903648170E080E090E04AE036
:1013B0000E94F40EE0912803F091290384818111A9
:1013C00009C064E871E088E791E00E94EA050E94A4
:1013D0001B12AFCF80916003811129C0E0912803D7
:1013E000F09129038081811122C08AE080936003FB
:1013F00081E00E94BF0FE0912803F09129036585E9
:10140000768580E090E04AE00E94F40E83E791E068
:10141000DF91CF911F91FF90EF90BF90AF909F9081
:101420008F907F906F905F904F900C94DB0EDF91C8
:10143000CF911F91FF90EF90BF90AF909F908F90B2
:101440007F906F905F904F900895E0910801F09128
:101450000901848995890496909329038093280330
:101460006AEF72E080E00E94950F0E947E11E09189
:101470000801F09109011086118AE0912803F0918A
:10148000290381E08083118212828BE0848313829E
:10149000158216821782108682E087878AE0809301
:1014A0006103109265031092640363ED71E08BECAD
:1014B00091E00E94EA050E9492100E94B6108FE708
:1014C00098E00E94EA1440E061E08BE398E00C941D
:1014D000BD14CF93C82F85FD04C087FD02C084FFD3
:1014E00004C060E081E00E94FE148FB7F894C6FF4C
:1014F00006C024EF31E030936503209364038FBF6F
:10150000CF9108958091640390916503892B21F414
:1015100060E081E00C94FE14089584EF91E09093D4
:101520006503809364036FEE71E08EED91E00E949D
:10153000EA0582E89AE00E94EA1440E060E089E669
:101540009AE00C94BD14CF93C82F85FF0AC00E9467
:101550009D0E0E949D100E94C11060E081E00E94DB
:10156000FE14C6FF0EC00E94DA10E0910801F0914F
:10157000090187A5882319F00E940D1202C00E945C
:101580001412C7FD0E94A810C4FD0E94CC1083EA6B
:101590009AE00E94CC148823A9F067E172E086E00B
:1015A00092E00E94EA05E0910801F091090187A507
:1015B000882319F083E092E002C080E092E0CF91AE
:1015C0000C94DB0ECF91089562EF72E080E00E94F0
:1015D000950F6AEF72E081E00E94950F40E061E0B4
:1015E00083EA9AE00C94BD1410926003E0915D03CD
:1015F000F0915E0381E08083828308950895E091F5
:101600000801F09109010488F589E02DCF010496C5
:1016100090935E0380935D03158281E084836EEB7B
:1016200072E08FEA92E00C94EA05CF93E0915D03BB
:10163000F0915E032081222319F010820E94EA05B6
:10164000CFB7F8948091640390916503892B21F4BE
:1016500060E081E00E94FE14CFBFCF91089564EE58
:1016600072E087ED92E00C94150B61EA72E084E978
:1016700092E00C94150B66E872E087E792E00C9418
:10168000150B6BE672E08EE592E00C94150BEF9271
:10169000FF920F931F93CF937C018B01C42F45FFC3
:1016A00004C060E081E00E94FE14C6FF1DC0E0910E
:1016B0005D03F0915E038181882391F0F701099524
:1016C000C8010E94EA148AEF90E09093650380932A
:1016D000640340E061E08DE395E10E94BD1404C025
:1016E00060E081E00E94FE14C7FD02C0C4FF09C093
:1016F000E0915D03F0915E0381E09181911180E0C2
:101700008183CF911F910F91FF90EF90089561E039
:1017100086E00E94710FE0915D03F0915E0381818C
:10172000882319F083ED92E002C08FEC92E00C94D4
:10173000DB0E482F6FE27BE08AED90E10E94470BC1
:1017400089E99BE00E94CC1481110C94870B0895C9
:10175000482F65E37BE088E290E10E94470B88EA2E
:101760009BE00E94CC1481110C94870B0895482FA4
:101770006BE37BE087E590E10E94470B87EB9BE002
:101780000E94CC1481110C94870B08951F93CF9362
:10179000DF9300D000D01F92CDB7DEB7182F85FFA2
:1017A00004C060E081E00E94FE1416FF18C0E091C2
:1017B0005D03F0915E03868197810E94691081E448
:1017C0009BE00E94EA148AEF90E090936503809377
:1017D000640340E061E08DE395E10E94BD1417FFD2
:1017E00016C0E0910801F091090183A9815087FD9D
:1017F00081E083ABE3A9EE0FFF0BE857FC4F859127
:101800009491E0915D03F0915E039783868314FFCA
:1018100018C0E0910801F091090183A98F5F82301F
:1018200014F483AB01C013AAE3A9EE0FFF0BE85732
:10183000FC4F85919491E0915D03F0915E03978355
:10184000868386EC9BE00E94CC14882339F160E00B
:1018500070E08EE492E00E94EA0582E00E94BF0FF1
:1018600086E00E946E0FE0910801F0910901E3A962
:10187000EE0FFF0BE857FC4F65917491CE01019676
:101880000E941C166EE0CE0101960E94E41061E0F9
:101890008FE00E94710F87E00E946E0F0F900F90F3
:1018A0000F900F900F90DF91CF911F910895CF93DC
:1018B000C82F85FF06C00E94141260E081E00E94DC
:1018C000FE14C6FF0EC040E061E087EA9CE00E9483
:1018D000BD14E0915D03F0915E0381E085830E9479
:1018E000F40AE0915D03F0915E03C7FF05C08381B8
:1018F000823010F081508383C4FF05C0838184311E
:1019000010F48F5F838381E08083CF910895CF931C
:10191000C82F85FF06C00E94141260E081E00E947B
:10192000FE14E0915D03F0915E03C7FF05C0838163
:10193000833010F081508383C4FF05C083818431DC
:1019400010F48F5F838381E08083CF910895CF93DC
:10195000C82F85FF0DC0E0915D03F0915E031582F5
:1019600040E061E087E59CE00E94BD140E94F40A1B
:10197000C6FF2AC0E0915D03F0915E0383819481EC
:101980009817C8F0A0910801B0910901D1968C93E5
:10199000D1978481D2968C930E940D12E0915D03C1
:1019A000F0915E0382E0858340E061E08DE395E1A4
:1019B0000E94BD1409C0158240E061E087E59CE00B
:1019C0000E94BD140E94F40AE0915D03F0915E0351
:1019D000C7FF05C08481833010F081508483C4FF29
:1019E00005C08481823310F48F5F848381E080831B
:1019F000CF9108958091640390916503892B21F420
:101A000060E081E00C94FE140895CF93262F682F98
:101A100070E080E090E0222321F04AE0CF910C9426
:101A2000F40E0E947010C82FCC2329F08FEF0E9473
:101A30006E0FC150F9CFCF9108958091600381114D
:101A40000EC082E380936003E0915D03F0915E033A
:101A500081E09281911180E0828381E08083E09136
:101A60005D03F0915E038081882309F49BC010829E
:101A70008581813071F120F0823009F453C00895DE
:101A800082E00E94BF0FE0915D03F0915E036381ED
:101A900070E080E090E00E94701061E097E0981B99
:101AA000892F0E94710FE0915D03F0915E036281C6
:101AB00083810E94050D8FE20E946E0FE0915D030D
:101AC000F0915E03648170E080E090E04AE00C9465
:101AD000F40E82E00E94BF0FE0915D03F0915E037F
:101AE000638170E080E090E00E94701061E097E018
:101AF000981B892F0E94710FE0915D03F0915E03A6
:101B0000638170E080E090E04AE00E94F40E8FE292
:101B10000E946E0FE0915D03F0915E03628184810B
:101B20000C94050D81E00E94BF0F8FE292E00E94AD
:101B3000DB0E82E00E94BF0FE0915D03F0915E0337
:101B4000638170E080E090E00E94701061E097E0B7
:101B5000981B892F0E94710FE0915D03F0915E0345
:101B6000638170E080E090E04AE00E94F40E8FE232
:101B70000E946E0FE0915D03F0915E03648170E05E
:101B800080E090E04AE00E94F40E8FB7F8942AEFCC
:101B900030E030936503209364038FBF8AEF9CE0AD
:101BA0000C94EA1408950E94FF0A40E061E089E97C
:101BB0009BE00C94BD140E94FF0A40E061E088EABB
:101BC0009BE00C94BD140E94FF0A40E061E087EBAB
:101BD0009BE00C94BD140E94FF0A80E00E94BF0F9E
:101BE000E0910801F0910901E3A9EE0FFF0BE8571E
:101BF000FC4F85919491E0915D03F0915E03978392
:101C0000868340E061E086EC9BE00C94BD14A091DB
:101C10000801B09109015496ED91FC915597CF01BF
:101C2000049690935E0380935D0381E08483118624
:101C3000D1968C91D1978783D2968C91808781E0C1
:101C40000E94BF0F8FE392E00E94DB0E10926003B0
:101C500040E061E087E59CE00E94BD148DE19DE0DD
:101C60000C94EA14E0910801F09109010488F589C7
:101C7000E02DCF01049690935E0380935D0381E095
:101C800084830E94BF0F8FE192E00E94DB0E1092CE
:101C9000600340E061E087E89CE00E94BD148EEFA5
:101CA0009AE00C94EA148AB18F708AB98BB1806F74
:101CB0008BB9089590932D0380932C0308959093EE
:101CC0002B0380932A03089589B180932F03809179
:101CD0000601882329F08091060181508093060136
:101CE0000895CF9380910601811125C083E08093F0
:101CF000060190912F039095907F20912E03822FC3
:101D000080958923C92FC095C22390932E038823E1
:101D100039F0E0912C03F0912D03309709F00995EB
:101D2000CC2349F0E0912A03F0912B03309719F06E
:101D30008C2FCF910994CF91089562E673E080E0F3
:101D40000E94950F6AE273E081E00E94950F62E5C0
:101D500073E082E00E94950F6AE473E083E00E94E2
:101D6000950F62E473E084E00E94950F6AE373E0EC
:101D700085E00E94950F6AE073E086E00E94950F6F
:101D800062E073E087E00C94950F0E946E0F80E094
:101D900090E00895CF93DF93EC018991882341F07F
:101DA00090E8980F983008F487700E946E0FF5CF76
:101DB000DF91CF910895CF93DF93EC01FE018491E1
:101DC000882349F090E8980F983008F487700E94B3
:101DD0006E0F2196F3CFDF91CF91089560E070E010
:101DE00085EC9EE00C945F16CF93DF93CDB7DEB702
:101DF00061970FB6F894DEBF0FBECDBF242F30E041
:101E0000AE014F5F5F4F0E942316CE0101960E94E4
:101E1000CA0E61960FB6F894DEBF0FBECDBFDF913C
:101E2000CF9108953B983A98399838982A9A2B9AE6
:101E300086B181703199826032998460339988606B
:101E40008295807F2B982B9A96B1917031999260F0
:101E500032999460339998602B98892B089529982A
:101E60000C94120F3B9A3A9A399A389A2A982B9ADC
:101E7000982F92959F7090FF02C0409A01C04098A1
:101E800091FF02C0419A01C0419892FF02C0429A5C
:101E900001C04298987011F0439A01C043982B9862
:101EA0002B9A80FF02C0409A01C0409881FF02C077
:101EB000419A01C0419882FF02C0429A01C04298F3
:101EC00083FF02C0439A01C043982B980E942F0FB2
:101ED00087FDFCCF089529980C94320F299A0C9411
:101EE000320F613009F460E48058860F0C946B0F58
:101EF0000F931F93CF93DF938B018770880F880F09
:101F0000880F805C0E946B0FE801085F1F4F89916A
:101F10000E946E0FC017D107D1F760E080E0DF911B
:101F2000CF911F910F910C94710F0F931F93CF932B
:101F3000DF93EB018770880F880F880F805C0E9409
:101F40006B0F8E01085F1F4FFE0184910E946E0F80
:101F50002196C017D107C1F760E080E0DF91CF91F3
:101F60001F910F910C94710F8EE00C946B0F8DE00C
:101F70000C946B0F8CE00C946B0F0C94BA0FCF93F6
:101F8000DF93811105C081E00E946B0F60E00DC0FE
:101F9000CFEFC80F6C2F80E00E94710FD0E180E27C
:101FA0000E946E0FD150D9F76C2F80E0DF91CF9156
:101FB0000C94710F3B9A3A9A399A389A219A239A3B
:101FC000229A299A2B9A2A9A8FE59AEE0197F1F78D
:101FD00000C000002B9829982A982B9A409A419A81
:101FE000429843982B988FE090E40197F1F700C056
:101FF00000002B9A409A419A429843982B988FE878
:1020000091E00197F1F700C000002B9A409A419AA5
:10201000429843982B982B9A4098419A429843981B
:102020002B980E942F0F87FDFCCF88E20E946B0F38
:1020300088E00E946B0F8CE00E946B0F86E00E948C
:102040006B0F81E00E946B0F60E080E00C94710FD9
:102050006AEA89E190E00E94CC1649E150E06AE129
:1020600070E080E291E00E94C21644E050E063E339
:1020700070E089E391E00C94C21689E190E00E943F
:10208000BA168A3A21F081E080933E01089549E131
:1020900050E06AE170E080E291E00E94AA1644E01C
:1020A00050E063E370E089E391E00C94AA1649E103
:1020B00050E06BE673E080E291E00E94131644E08A
:1020C00050E064E873E089E391E00E9413160C94F9
:1020D000281049E150E0BC0180E291E00C94131615
:1020E000CF92DF92EF92FF92CF93C0E02AE0C22E10
:1020F000D12CE12CF12C611571058105910541F080
:10210000A70196010E94D115CA01B901CF5FF3CF93
:10211000C11101C0C1E08C2FCF91FF90EF90DF90F3
:10212000CF900895E0910801F091090187A58823D7
:1021300011F02C9A08952D9A0895E0910801F091DC
:10214000090187A5882311F02C9808952D980895EA
:10215000E0910801F091090187A595B1882311F05C
:1021600080E101C080E2892785B90895E0910801E6
:10217000F091090187A5882311F02D9A08952C9AD2
:102180000895E0910801F091090187A5882311F0D5
:102190002D9808952C980895E0910801F091090177
:1021A00087A595B1882311F080E201C080E18927DD
:1021B00085B90895E0910801F091090181E097A5A2
:1021C000911180E087A708950F931F93CF93DF931A
:1021D0008C01FC0101900020E9F73197E81BF90B15
:1021E00070E06E1B7F0B76956795C62FD0E0DC17ED
:1021F00028F480E20E946E0FDF5FF9CFC801DF9103
:10220000CF911F910F910C94CA0E1F920F920FB68F
:102210000F9211242F933F938F939F93AF93BF936C
:102220008091310390913203A0913303B091340334
:102230003091300323E0230F2D3720F40196A11DA8
:10224000B11D05C026E8230F0296A11DB11D2093E4
:1022500030038093310390933203A0933303B09300
:1022600034038091350390913603A0913703B091E8
:1022700038030196A11DB11D809335039093360359
:10228000A0933703B0933803BF91AF919F918F9183
:102290003F912F910F900FBE0F901F9018952FB761
:1022A000F8946091310370913203809133039091DF
:1022B00034032FBF08958091350390913603A09188
:1022C0003703B09138032091B200B89B05C02F3F6F
:1022D00019F00196A11DB11DBA2FA92F982F88279B
:1022E000820F911DA11DB11DBC01CD0142E0660F01
:1022F000771F881F991F4A95D1F708958FB7F894D3
:10230000109235031092360310923703109238035F
:10231000109231031092320310923303109234035F
:10232000109230031092B200B899B89A8FBF0895F6
:10233000FC012FB7F89487818823B9F01782109297
:10234000630310926203A481B5819C9186819823D6
:1023500031F043E050E05093630340936203A28165
:10236000B3819C91809589238C9380916203909195
:102370006303892B41F5A481B5819C9186819823C3
:1023800069F0A281B3819C91809589238C93838588
:102390009485909363038093620315C09085911197
:1023A00004C01182108215860EC0A281B3819C9157
:1023B000892B8C938185928590936303809362032C
:1023C0008085815080872FBF0895E6E6F3E085E29F
:1023D00090E09383828383E290E09583848381E01D
:1023E0008683209A089591E090936D0380936E0305
:1023F0007093700360936F03509372034093710363
:1024000028E931E1309367032093660380917303D9
:10241000813011F090937303089540E050E06EE135
:1024200070E081E00C94F31149E150E065E070E068
:1024300082E00C94F31148E250E06AE070E083E03F
:102440000C94F311E0916603F0916703309719F053
:1024500086E693E0099408950C94B2140C940C153C
:1024600085B5856085BDEEE6F0E080818160808382
:10247000E1EBF0E0808184608083E0E7F0E0808140
:10248000816080830895E9E6F0E080818560808343
:102490008DB383608DBB0895209A249A259A0E945B
:1024A000DA0F0E949D0E0E94A3140E946C130E94DA
:1024B000530E0E9430120E9443120C94E5110E94A8
:1024C0004C128CE292E10E945A0E8EE292E10E943E
:1024D0005F0E0E943D1078940E94710E0E9422129D
:1024E0000E94DC140E944915F7CF1F920F920FB67D
:1024F0000F9211242F933F934F935F936F937F938A
:102500008F939F93AF93BF93EF93FF9384E686BD22
:102510000E94640E0E946615FF91EF91BF91AF91EA
:102520009F918F917F916F915F914F913F912F91EB
:102530000F900FBE0F901F9018950F931F93CF937E
:10254000DF938C01C0910801D091090129A5AAA5AA
:1025500030E0B0E00E94F9159B01AC01A2EEB4E0BE
:102560000E94081627E53FE040E050E00E94D115A8
:10257000D8010E9408162BA530E040E050E00E94F0
:10258000D115CA01B9010CA510E00E5F1F4F9801CB
:10259000110F440B550B0E94D115C901DF91CF914A
:1025A0001F910F910895E0910801F09109010288AF
:1025B000F389E02D80818230C8F480E00E94BF0F53
:1025C00088EC93E00E94DB0EE0910801F091090194
:1025D000828993896EE00B960E94E41060E08FE0A0
:1025E0000E94710F86EC93E00E94DB0EE0910801DF
:1025F000F09109010288F389E02D80818130A1F4F6
:1026000087819085892B81F082E00E94BF0FE09145
:102610000801F09109010288F389E02D87819085F6
:1026200060E10B960E94E410E0910801F09109012D
:102630000288F389E02D8081823009F04CC081E06E
:102640000E94BF0FE0910801F09109010288F3890F
:10265000E02D85819681009749F0DC011896FC9366
:10266000EE93179760E10B960E94E41082E00E94BF
:10267000BF0FE0910801F09109010288F389E02D74
:1026800081819281892B19F084EC93E002C082EC65
:1026900093E00E94DB0EE0910801F091090182892C
:1026A00093896EE00B960E94E41061E08FE00E9437
:1026B000710FE0910801F09109010288F389E02D82
:1026C00083819481892B19F080EC93E002C08EEB1A
:1026D00093E00C94DB0E08950F931F93CF93DF9339
:1026E000A1EEB2E0EDEDF1E01296FC93EE931197BE
:1026F0008FE592E014969C938E93139707EC12E06B
:1027000018961C930E93179723E932E0E8013A8359
:1027100029834DEA52E05C834B83BE83AD8368E43A
:1027200075E07A876987EA011A8309833C832B83E2
:10273000BE83AD8368E575E07A876987E9015A83CE
:1027400049831C830B83BE83AD834CE355E05A87DA
:102750004987EC01BA83A98309E712E01C830B8344
:1027600021E132E038872F83E9019E838D834AE09F
:1027700058E05A874987E8019A83898347EF51E0F7
:102780005C834B838BE292E098878F8325E432E071
:10279000E9011E830D839A8389839C838B8364EE76
:1027A0007AE07A876987EC011E830D833A83298357
:1027B0003C832B8325E23AE03A872987EA011A8392
:1027C0000983FC83EB838DE89AE09A87898752839B
:1027D0004183B483A38305E711E01087078329EAC7
:1027E00031E0E901FE83ED838FE891E09A838983EC
:1027F0001C830B834BED5DE05A874987E801FE831C
:10280000ED833A83298363EC71E07C836B834BEE29
:102810005DE05A874987EB01FE83ED831A830983C4
:102820004BE551E05C834B8303ED1DE01A8709877C
:10283000EA01FE83ED837A83698301E411E01C835E
:102840000B8367E07EE07A876987E801FE83ED838A
:102850005A8349839C838B831A861986EC01FE83F5
:10286000ED831A8309833C832B8323EE3DE03A8773
:102870002987E0910801F0910901B38BA28BDF91C8
:10288000CF911F910F910C94D312CF93C82F86FF35
:1028900019C0A0910801B09109015296ED91FC91E7
:1028A000539787819085009729F053969C938E9338
:1028B000529708C081859285009721F040E061E041
:1028C0000E94BD14C5FF14C08AEF80930701E091F8
:1028D0000801F091090181E086AB15AAA289B389AC
:1028E00015968D919C911697009711F0938B828B82
:1028F000C7FF0EC0E0910801F0910901A289B389D8
:1029000011968D919C911297009711F0938B828B69
:10291000C4FF0EC0E0910801F0910901A289B389BA
:1029200013968D919C911497009711F0938B828B45
:1029300085E494E10E94CC14882319F0CF910C9483
:10294000D312CF910895E9E3F3E085E494E1918314
:102950008083A0910801B09109015596FC93EE93F4
:1029600054970895E0910801F09109010488F589D0
:10297000E02D0190F081E02D0994FC01842FA091BD
:102980000801B091090154960D90BC91A02DED93D2
:10299000FC93611109940895E0910801F0910901F7
:1029A0000488F589E02D21E04081518148175907BD
:1029B00009F020E0822F0895E0910801F0910901CB
:1029C0000488F589E02D0280F381E02D309709F02D
:1029D00009940895E0910801F09109010488F589AE
:1029E000E02D938382830895E0910801F09109011D
:1029F0000488F589E02D138212820895CF93DF9326
:102A0000C82FD62F0E94F4144D2F6C2F85E494E12B
:102A1000DF91CF910C94BD14E0910801F091090170
:102A200095A9911129C0A489B5892D913C9125546E
:102A3000344111F5803201F580910701811116C0F2
:102A400081E085AB40E050E065E070E00E94F3116A
:102A500040E061E088E697E00E94BD148FE597E0D2
:102A60000E94EA1484E680930701089515AA16AA25
:102A700060E081E00C94FE140895982F907621F484
:102A800087FD02C084FF04C060E081E00C94FE1466
:102A90000895E0910801F091090184A98823A9F023
:102AA00014AA40E061E08DE395E10E94BD1481E04D
:102AB0000E94BF0F89ED93E00E94DB0E82E00E942E
:102AC000BF0F8AEC93E00C94DB0E089580916003B5
:102AD000882319F0815080936003809161038823DB
:102AE00019F0815080936103E0910801F091090190
:102AF00086A9882339F080910701882319F0815035
:102B0000809307018091640390916503009729F0F9
:102B10000197909365038093640380916203909181
:102B20006303009729F001979093630380936203F6
:102B30000895DB018F939F930E940816BF91AF9178
:102B4000A29F800D911DA39F900DB29F900D112407
:102B50000895AA1BBB1B51E107C0AA1FBB1FA617E4
:102B6000B70710F0A61BB70B881F991F5A95A9F736
:102B700080959095BC01CD01089597FB072E16F422
:102B8000009407D077FD09D00E94A91507FC05D055
:102B90003EF4909581959F4F0895709561957F4F74
:102BA0000895A1E21A2EAA1BBB1BFD010DC0AA1F8E
:102BB000BB1FEE1FFF1FA217B307E407F50720F0A6
:102BC000A21BB30BE40BF50B661F771F881F991F21
:102BD0001A9469F760957095809590959B01AC016A
:102BE000BD01CF010895EE0FFF1F0590F491E02D78
:102BF0000994A29FB001B39FC001A39F700D811DD6
:102C00001124911DB29F700D811D1124911D0895F5
:102C10000E94F915A59F900DB49F900DA49F800D63
:102C2000911D11240895FB01DC0102C005900D9255
:102C300041505040D8F70895FB01DC0105900D92FA
:102C40000020E1F708952532310520F4223010F0FC
:102C50000C942E16FA011082CA010895BB272A305F
:102C600051F4992342F4BDE2909580957095619559
:102C70007F4F8F4F9F4F0C943E16BB27FA01A62F14
:102C80006217710581059105330B30FB66F0AA27A9
:102C9000660F771F881F991FAA1FA21710F0A21B8B
:102CA00063953850A9F7A05DAA3308F0A95DA193F8
:102CB00036F7B111B1931082CA010C9424180F9306
:102CC0001F93CF93DF93EC018B01009731F46115D3
:102CD000710519F480E090E038C06EE070E081E0AA
:102CE00090E00E94DA16FC010097A1F380E883834C
:102CF0000115110571F01387028781E883838091A4
:102D0000740390917503892B21F4F0937503E0937C
:102D100074032097C9F0D187C08783818260838341
:102D20008091760390917703892B71F4F093770368
:102D3000E09376038091780390917903892B21F4B5
:102D4000F0937903E0937803CF01DF91CF911F9146
:102D50000F910895DC01CB01FC01F999FECF06C06B
:102D6000F2BDE1BDF89A319600B40D924150504049
:102D7000B8F70895F999FECF92BD81BDF89A9927C9
:102D800080B50895DC01CB0103C02D910E94CD16C2
:102D900041505040D0F70895262FF999FECF1FBA21
:102DA00092BD81BD20BD0FB6F894FA9AF99A0FBE74
:102DB000019608950F931F93CF93DF93869F800111
:102DC000879F100D969F100D1124C8010E94F616C2
:102DD000EC01009729F0A80160E070E00E941D1846
:102DE000CE01DF91CF911F910F910895CF93DF9383
:102DF0008230910510F482E090E0E0917C03F09144
:102E00007D0320E030E0A0E0B0E0309739F1408170
:102E1000518148175907B8F04817590771F4828152
:102E20009381109729F013969C938E9312972CC040
:102E300090937D0380937C0327C02115310531F0E9
:102E40004217530718F0A901DB0101C0EF019A01F5
:102E5000BD01DF010280F381E02DD7CF21153105BF
:102E6000F9F0281B390B2430310580F48A819B81CD
:102E70006115710521F0FB019383828304C0909357
:102E80007D0380937C03FE01329644C0FE01E20F75
:102E9000F31F8193919322503109398328833AC0DB
:102EA00020917A0330917B03232B41F4209102017E
:102EB0003091030130937B0320937A03209100012A
:102EC000309101012115310541F42DB73EB74091F4
:102ED000040150910501241B350BE0917A03F09118
:102EE0007B03E217F307A0F42E1B3F0B28173907CB
:102EF00078F0AC014E5F5F4F2417350748F04E0F56
:102F00005F1F50937B0340937A038193919302C098
:102F1000E0E0F0E0CF01DF91CF910895CF93DF9310
:102F2000009709F487C0FC01329713821282C09186
:102F30007C03D0917D03209781F420813181280F7B
:102F4000391F80917A0390917B038217930779F55B
:102F5000F0937B03E0937A036DC0DE0120E030E064
:102F6000AE17BF0750F412964D915C9113979D01D7
:102F70004115510509F1DA01F3CFB383A2834081F2
:102F80005181840F951F8A179B0771F48D919C9135
:102F90001197840F951F02969183808312968D91CD
:102FA0009C911397938382832115310529F4F09323
:102FB0007D03E0937C033EC0D9011396FC93EE930E
:102FC00012974D915D91A40FB51FEA17FB0779F495
:102FD00080819181840F951F0296D90111969C934F
:102FE0008E938281938113969C938E931297E0E047
:102FF000F0E08A819B81009719F0FE01EC01F9CF86
:10300000CE01029628813981820F931F20917A0385
:1030100030917B032817390769F4309729F410920F
:103020007D0310927C0302C013821282D0937B0333
:10303000C0937A03DF91CF910895DC0101C06D93B5
:1030400041505040E0F70895DC01FC01672F719179
:103050007723E1F7329704C07C916D93708362917E
:0C306000AE17BF07C8F30895F894FFCF27
:10306C0000007E03200001FA0A01000000000000AD
:10307C000000000000000000000000000000000044
:10308C00000000000000000000000000000000A193
:10309C001B0000083204101B1C0001010200000080
:1030AC0000020000000000000000000055017974CF
:1030BC006B6F776E696B610000000002000000000E
:1030CC000000000000004F6772616E69637A656EE4
:1030DC006961000000020000000000000000000018
:1030EC005779626965727A2070726F66696C00023A
:1030FC0000000000000000000000526573657420A1
:10310C007573742E00000000000200000000000027
:10311C00000000005A61706973207573742E0000F2
:10312C0000000002000000000000000000005A61D6
:10313C006D696502204641207A204643000100005B
:10314C000000000000000000557374617769656E23
:10315C006961000000000001000000000000000098
:10316C000000496E666F726D61636A650000000055
:10317C000002000000000000000000004C69637AAF
:10318C006E696B206E2D6B6F6400000200000000F6
:10319C00000000000000456E6B6F6465720000005B
:1031AC000000000000020000000000000000000011
:1031BC004B7261026303776B690000000000000131
:1031CC00000000000000000000004E61727A0564EF
:1031DC007A6961000000000000010000000000009E
:1031EC000000000054657374000000000000000033
:1031FC00000000020000000000000000000055016B
:10320C0079746B6F776E696B6100000000020000CF
:10321C000000000000000000424B560000000000BF
:10322C000000000000000002000000000000000090
:10323C000000425856000000000000000000000092
:10324C000001000000000000000000004B616C69F0
:0C325C00627261636A6100000000000003
:00000001FF
